{
  "_format": "hh-sol-artifact-1",
  "contractName": "DaobiVoteContract",
  "sourceName": "contracts/DaobiVoteContract3.sol",
  "abi": [
    {
      "inputs": [],
      "stateMutability": "nonpayable",
      "type": "constructor"
    },
    {
      "inputs": [],
      "name": "AccessControlBadConfirmation",
      "type": "error"
    },
    {
      "inputs": [
        {
          "internalType": "address",
          "name": "account",
          "type": "address"
        },
        {
          "internalType": "bytes32",
          "name": "neededRole",
          "type": "bytes32"
        }
      ],
      "name": "AccessControlUnauthorizedAccount",
      "type": "error"
    },
    {
      "inputs": [
        {
          "internalType": "address",
          "name": "sender",
          "type": "address"
        },
        {
          "internalType": "uint256",
          "name": "tokenId",
          "type": "uint256"
        },
        {
          "internalType": "address",
          "name": "owner",
          "type": "address"
        }
      ],
      "name": "ERC721IncorrectOwner",
      "type": "error"
    },
    {
      "inputs": [
        {
          "internalType": "address",
          "name": "operator",
          "type": "address"
        },
        {
          "internalType": "uint256",
          "name": "tokenId",
          "type": "uint256"
        }
      ],
      "name": "ERC721InsufficientApproval",
      "type": "error"
    },
    {
      "inputs": [
        {
          "internalType": "address",
          "name": "approver",
          "type": "address"
        }
      ],
      "name": "ERC721InvalidApprover",
      "type": "error"
    },
    {
      "inputs": [
        {
          "internalType": "address",
          "name": "operator",
          "type": "address"
        }
      ],
      "name": "ERC721InvalidOperator",
      "type": "error"
    },
    {
      "inputs": [
        {
          "internalType": "address",
          "name": "owner",
          "type": "address"
        }
      ],
      "name": "ERC721InvalidOwner",
      "type": "error"
    },
    {
      "inputs": [
        {
          "internalType": "address",
          "name": "receiver",
          "type": "address"
        }
      ],
      "name": "ERC721InvalidReceiver",
      "type": "error"
    },
    {
      "inputs": [
        {
          "internalType": "address",
          "name": "sender",
          "type": "address"
        }
      ],
      "name": "ERC721InvalidSender",
      "type": "error"
    },
    {
      "inputs": [
        {
          "internalType": "uint256",
          "name": "tokenId",
          "type": "uint256"
        }
      ],
      "name": "ERC721NonexistentToken",
      "type": "error"
    },
    {
      "inputs": [],
      "name": "EnforcedPause",
      "type": "error"
    },
    {
      "inputs": [],
      "name": "ExpectedPause",
      "type": "error"
    },
    {
      "anonymous": false,
      "inputs": [
        {
          "indexed": true,
          "internalType": "address",
          "name": "owner",
          "type": "address"
        },
        {
          "indexed": true,
          "internalType": "address",
          "name": "approved",
          "type": "address"
        },
        {
          "indexed": true,
          "internalType": "uint256",
          "name": "tokenId",
          "type": "uint256"
        }
      ],
      "name": "Approval",
      "type": "event"
    },
    {
      "anonymous": false,
      "inputs": [
        {
          "indexed": true,
          "internalType": "address",
          "name": "owner",
          "type": "address"
        },
        {
          "indexed": true,
          "internalType": "address",
          "name": "operator",
          "type": "address"
        },
        {
          "indexed": false,
          "internalType": "bool",
          "name": "approved",
          "type": "bool"
        }
      ],
      "name": "ApprovalForAll",
      "type": "event"
    },
    {
      "anonymous": false,
      "inputs": [
        {
          "indexed": false,
          "internalType": "uint256",
          "name": "_fromTokenId",
          "type": "uint256"
        },
        {
          "indexed": false,
          "internalType": "uint256",
          "name": "_toTokenId",
          "type": "uint256"
        }
      ],
      "name": "BatchMetadataUpdate",
      "type": "event"
    },
    {
      "anonymous": false,
      "inputs": [
        {
          "indexed": true,
          "internalType": "address",
          "name": "burnee",
          "type": "address"
        }
      ],
      "name": "Burnt",
      "type": "event"
    },
    {
      "anonymous": false,
      "inputs": [
        {
          "indexed": false,
          "internalType": "uint256",
          "name": "_tokenId",
          "type": "uint256"
        }
      ],
      "name": "MetadataUpdate",
      "type": "event"
    },
    {
      "anonymous": false,
      "inputs": [
        {
          "indexed": false,
          "internalType": "string",
          "name": "newURI",
          "type": "string"
        }
      ],
      "name": "NFTRetarget",
      "type": "event"
    },
    {
      "anonymous": false,
      "inputs": [
        {
          "indexed": true,
          "internalType": "address",
          "name": "newDBvt",
          "type": "address"
        }
      ],
      "name": "NewToken",
      "type": "event"
    },
    {
      "anonymous": false,
      "inputs": [
        {
          "indexed": false,
          "internalType": "address",
          "name": "account",
          "type": "address"
        }
      ],
      "name": "Paused",
      "type": "event"
    },
    {
      "anonymous": false,
      "inputs": [
        {
          "indexed": true,
          "internalType": "address",
          "name": "reclVoter",
          "type": "address"
        }
      ],
      "name": "Reclused",
      "type": "event"
    },
    {
      "anonymous": false,
      "inputs": [
        {
          "indexed": true,
          "internalType": "address",
          "name": "regVoter",
          "type": "address"
        },
        {
          "indexed": false,
          "internalType": "bytes32",
          "name": "nickname",
          "type": "bytes32"
        },
        {
          "indexed": false,
          "internalType": "address",
          "name": "initVote",
          "type": "address"
        }
      ],
      "name": "Registered",
      "type": "event"
    },
    {
      "anonymous": false,
      "inputs": [
        {
          "indexed": true,
          "internalType": "bytes32",
          "name": "role",
          "type": "bytes32"
        },
        {
          "indexed": true,
          "internalType": "bytes32",
          "name": "previousAdminRole",
          "type": "bytes32"
        },
        {
          "indexed": true,
          "internalType": "bytes32",
          "name": "newAdminRole",
          "type": "bytes32"
        }
      ],
      "name": "RoleAdminChanged",
      "type": "event"
    },
    {
      "anonymous": false,
      "inputs": [
        {
          "indexed": true,
          "internalType": "bytes32",
          "name": "role",
          "type": "bytes32"
        },
        {
          "indexed": true,
          "internalType": "address",
          "name": "account",
          "type": "address"
        },
        {
          "indexed": true,
          "internalType": "address",
          "name": "sender",
          "type": "address"
        }
      ],
      "name": "RoleGranted",
      "type": "event"
    },
    {
      "anonymous": false,
      "inputs": [
        {
          "indexed": true,
          "internalType": "bytes32",
          "name": "role",
          "type": "bytes32"
        },
        {
          "indexed": true,
          "internalType": "address",
          "name": "account",
          "type": "address"
        },
        {
          "indexed": true,
          "internalType": "address",
          "name": "sender",
          "type": "address"
        }
      ],
      "name": "RoleRevoked",
      "type": "event"
    },
    {
      "anonymous": false,
      "inputs": [
        {
          "indexed": true,
          "internalType": "address",
          "name": "burner",
          "type": "address"
        }
      ],
      "name": "SelfBurnt",
      "type": "event"
    },
    {
      "anonymous": false,
      "inputs": [
        {
          "indexed": true,
          "internalType": "address",
          "name": "from",
          "type": "address"
        },
        {
          "indexed": true,
          "internalType": "address",
          "name": "to",
          "type": "address"
        },
        {
          "indexed": true,
          "internalType": "uint256",
          "name": "tokenId",
          "type": "uint256"
        }
      ],
      "name": "Transfer",
      "type": "event"
    },
    {
      "anonymous": false,
      "inputs": [
        {
          "indexed": false,
          "internalType": "address",
          "name": "account",
          "type": "address"
        }
      ],
      "name": "Unpaused",
      "type": "event"
    },
    {
      "anonymous": false,
      "inputs": [
        {
          "indexed": true,
          "internalType": "address",
          "name": "voter",
          "type": "address"
        },
        {
          "indexed": true,
          "internalType": "address",
          "name": "votee",
          "type": "address"
        }
      ],
      "name": "Voted",
      "type": "event"
    },
    {
      "inputs": [],
      "name": "BURNER_ROLE",
      "outputs": [
        {
          "internalType": "bytes32",
          "name": "",
          "type": "bytes32"
        }
      ],
      "stateMutability": "view",
      "type": "function"
    },
    {
      "inputs": [],
      "name": "DEFAULT_ADMIN_ROLE",
      "outputs": [
        {
          "internalType": "bytes32",
          "name": "",
          "type": "bytes32"
        }
      ],
      "stateMutability": "view",
      "type": "function"
    },
    {
      "inputs": [],
      "name": "MINREQ_ROLE",
      "outputs": [
        {
          "internalType": "bytes32",
          "name": "",
          "type": "bytes32"
        }
      ],
      "stateMutability": "view",
      "type": "function"
    },
    {
      "inputs": [],
      "name": "MINTER_ROLE",
      "outputs": [
        {
          "internalType": "bytes32",
          "name": "",
          "type": "bytes32"
        }
      ],
      "stateMutability": "view",
      "type": "function"
    },
    {
      "inputs": [],
      "name": "NFT_MANAGER",
      "outputs": [
        {
          "internalType": "bytes32",
          "name": "",
          "type": "bytes32"
        }
      ],
      "stateMutability": "view",
      "type": "function"
    },
    {
      "inputs": [],
      "name": "PAUSER_ROLE",
      "outputs": [
        {
          "internalType": "bytes32",
          "name": "",
          "type": "bytes32"
        }
      ],
      "stateMutability": "view",
      "type": "function"
    },
    {
      "inputs": [],
      "name": "URIaddr",
      "outputs": [
        {
          "internalType": "string",
          "name": "",
          "type": "string"
        }
      ],
      "stateMutability": "view",
      "type": "function"
    },
    {
      "inputs": [],
      "name": "VOTE_ADMIN_ROLE",
      "outputs": [
        {
          "internalType": "bytes32",
          "name": "",
          "type": "bytes32"
        }
      ],
      "stateMutability": "view",
      "type": "function"
    },
    {
      "inputs": [
        {
          "internalType": "address",
          "name": "to",
          "type": "address"
        },
        {
          "internalType": "uint256",
          "name": "tokenId",
          "type": "uint256"
        }
      ],
      "name": "approve",
      "outputs": [],
      "stateMutability": "nonpayable",
      "type": "function"
    },
    {
      "inputs": [
        {
          "internalType": "address",
          "name": "_voter",
          "type": "address"
        }
      ],
      "name": "assessVotes",
      "outputs": [
        {
          "internalType": "uint160",
          "name": "",
          "type": "uint160"
        }
      ],
      "stateMutability": "view",
      "type": "function"
    },
    {
      "inputs": [
        {
          "internalType": "address",
          "name": "owner",
          "type": "address"
        }
      ],
      "name": "balanceOf",
      "outputs": [
        {
          "internalType": "uint256",
          "name": "",
          "type": "uint256"
        }
      ],
      "stateMutability": "view",
      "type": "function"
    },
    {
      "inputs": [
        {
          "internalType": "address",
          "name": "_voter",
          "type": "address"
        }
      ],
      "name": "checkStatus",
      "outputs": [
        {
          "internalType": "bool",
          "name": "",
          "type": "bool"
        }
      ],
      "stateMutability": "view",
      "type": "function"
    },
    {
      "inputs": [
        {
          "internalType": "address",
          "name": "_voter",
          "type": "address"
        }
      ],
      "name": "getAlias",
      "outputs": [
        {
          "internalType": "bytes32",
          "name": "",
          "type": "bytes32"
        }
      ],
      "stateMutability": "view",
      "type": "function"
    },
    {
      "inputs": [
        {
          "internalType": "uint256",
          "name": "tokenId",
          "type": "uint256"
        }
      ],
      "name": "getApproved",
      "outputs": [
        {
          "internalType": "address",
          "name": "",
          "type": "address"
        }
      ],
      "stateMutability": "view",
      "type": "function"
    },
    {
      "inputs": [
        {
          "internalType": "bytes32",
          "name": "role",
          "type": "bytes32"
        }
      ],
      "name": "getRoleAdmin",
      "outputs": [
        {
          "internalType": "bytes32",
          "name": "",
          "type": "bytes32"
        }
      ],
      "stateMutability": "view",
      "type": "function"
    },
    {
      "inputs": [
        {
          "internalType": "address",
          "name": "_voter",
          "type": "address"
        }
      ],
      "name": "getVoteDate",
      "outputs": [
        {
          "internalType": "uint32",
          "name": "",
          "type": "uint32"
        }
      ],
      "stateMutability": "view",
      "type": "function"
    },
    {
      "inputs": [
        {
          "internalType": "bytes32",
          "name": "role",
          "type": "bytes32"
        },
        {
          "internalType": "address",
          "name": "account",
          "type": "address"
        }
      ],
      "name": "grantRole",
      "outputs": [],
      "stateMutability": "nonpayable",
      "type": "function"
    },
    {
      "inputs": [
        {
          "internalType": "bytes32",
          "name": "role",
          "type": "bytes32"
        },
        {
          "internalType": "address",
          "name": "account",
          "type": "address"
        }
      ],
      "name": "hasRole",
      "outputs": [
        {
          "internalType": "bool",
          "name": "",
          "type": "bool"
        }
      ],
      "stateMutability": "view",
      "type": "function"
    },
    {
      "inputs": [
        {
          "internalType": "address",
          "name": "owner",
          "type": "address"
        },
        {
          "internalType": "address",
          "name": "operator",
          "type": "address"
        }
      ],
      "name": "isApprovedForAll",
      "outputs": [
        {
          "internalType": "bool",
          "name": "",
          "type": "bool"
        }
      ],
      "stateMutability": "view",
      "type": "function"
    },
    {
      "inputs": [
        {
          "internalType": "address",
          "name": "to",
          "type": "address"
        }
      ],
      "name": "mint",
      "outputs": [],
      "stateMutability": "nonpayable",
      "type": "function"
    },
    {
      "inputs": [],
      "name": "name",
      "outputs": [
        {
          "internalType": "string",
          "name": "",
          "type": "string"
        }
      ],
      "stateMutability": "view",
      "type": "function"
    },
    {
      "inputs": [
        {
          "internalType": "uint256",
          "name": "tokenId",
          "type": "uint256"
        }
      ],
      "name": "ownerOf",
      "outputs": [
        {
          "internalType": "address",
          "name": "",
          "type": "address"
        }
      ],
      "stateMutability": "view",
      "type": "function"
    },
    {
      "inputs": [],
      "name": "pause",
      "outputs": [],
      "stateMutability": "nonpayable",
      "type": "function"
    },
    {
      "inputs": [],
      "name": "paused",
      "outputs": [
        {
          "internalType": "bool",
          "name": "",
          "type": "bool"
        }
      ],
      "stateMutability": "view",
      "type": "function"
    },
    {
      "inputs": [],
      "name": "propertyRequirement",
      "outputs": [
        {
          "internalType": "uint256",
          "name": "",
          "type": "uint256"
        }
      ],
      "stateMutability": "view",
      "type": "function"
    },
    {
      "inputs": [],
      "name": "recluse",
      "outputs": [],
      "stateMutability": "nonpayable",
      "type": "function"
    },
    {
      "inputs": [],
      "name": "refreshTokenURI",
      "outputs": [],
      "stateMutability": "nonpayable",
      "type": "function"
    },
    {
      "inputs": [
        {
          "internalType": "address",
          "name": "_initialVote",
          "type": "address"
        },
        {
          "internalType": "bytes32",
          "name": "_name",
          "type": "bytes32"
        }
      ],
      "name": "register",
      "outputs": [],
      "stateMutability": "nonpayable",
      "type": "function"
    },
    {
      "inputs": [
        {
          "internalType": "bytes32",
          "name": "role",
          "type": "bytes32"
        },
        {
          "internalType": "address",
          "name": "callerConfirmation",
          "type": "address"
        }
      ],
      "name": "renounceRole",
      "outputs": [],
      "stateMutability": "nonpayable",
      "type": "function"
    },
    {
      "inputs": [
        {
          "internalType": "bytes32",
          "name": "role",
          "type": "bytes32"
        },
        {
          "internalType": "address",
          "name": "account",
          "type": "address"
        }
      ],
      "name": "revokeRole",
      "outputs": [],
      "stateMutability": "nonpayable",
      "type": "function"
    },
    {
      "inputs": [
        {
          "internalType": "address",
          "name": "from",
          "type": "address"
        },
        {
          "internalType": "address",
          "name": "to",
          "type": "address"
        },
        {
          "internalType": "uint256",
          "name": "tokenId",
          "type": "uint256"
        }
      ],
      "name": "safeTransferFrom",
      "outputs": [],
      "stateMutability": "nonpayable",
      "type": "function"
    },
    {
      "inputs": [
        {
          "internalType": "address",
          "name": "from",
          "type": "address"
        },
        {
          "internalType": "address",
          "name": "to",
          "type": "address"
        },
        {
          "internalType": "uint256",
          "name": "tokenId",
          "type": "uint256"
        },
        {
          "internalType": "bytes",
          "name": "data",
          "type": "bytes"
        }
      ],
      "name": "safeTransferFrom",
      "outputs": [],
      "stateMutability": "nonpayable",
      "type": "function"
    },
    {
      "inputs": [
        {
          "internalType": "address",
          "name": "_voter",
          "type": "address"
        }
      ],
      "name": "seeBallot",
      "outputs": [
        {
          "internalType": "address",
          "name": "",
          "type": "address"
        }
      ],
      "stateMutability": "view",
      "type": "function"
    },
    {
      "inputs": [
        {
          "internalType": "address",
          "name": "operator",
          "type": "address"
        },
        {
          "internalType": "bool",
          "name": "approved",
          "type": "bool"
        }
      ],
      "name": "setApprovalForAll",
      "outputs": [],
      "stateMutability": "nonpayable",
      "type": "function"
    },
    {
      "inputs": [
        {
          "internalType": "uint256",
          "name": "_minDB",
          "type": "uint256"
        }
      ],
      "name": "setMinimumTokenReq",
      "outputs": [],
      "stateMutability": "nonpayable",
      "type": "function"
    },
    {
      "inputs": [
        {
          "internalType": "string",
          "name": "newURI",
          "type": "string"
        }
      ],
      "name": "setURI",
      "outputs": [],
      "stateMutability": "nonpayable",
      "type": "function"
    },
    {
      "inputs": [],
      "name": "stake_amount",
      "outputs": [
        {
          "internalType": "uint256",
          "name": "",
          "type": "uint256"
        }
      ],
      "stateMutability": "view",
      "type": "function"
    },
    {
      "inputs": [
        {
          "internalType": "address",
          "name": "",
          "type": "address"
        }
      ],
      "name": "stakes",
      "outputs": [
        {
          "internalType": "uint256",
          "name": "",
          "type": "uint256"
        }
      ],
      "stateMutability": "view",
      "type": "function"
    },
    {
      "inputs": [
        {
          "internalType": "bytes4",
          "name": "interfaceId",
          "type": "bytes4"
        }
      ],
      "name": "supportsInterface",
      "outputs": [
        {
          "internalType": "bool",
          "name": "",
          "type": "bool"
        }
      ],
      "stateMutability": "view",
      "type": "function"
    },
    {
      "inputs": [],
      "name": "symbol",
      "outputs": [
        {
          "internalType": "string",
          "name": "",
          "type": "string"
        }
      ],
      "stateMutability": "view",
      "type": "function"
    },
    {
      "inputs": [
        {
          "internalType": "address payable",
          "name": "_daobi",
          "type": "address"
        }
      ],
      "name": "targetDaobi",
      "outputs": [],
      "stateMutability": "nonpayable",
      "type": "function"
    },
    {
      "inputs": [],
      "name": "tokenContract",
      "outputs": [
        {
          "internalType": "address payable",
          "name": "",
          "type": "address"
        }
      ],
      "stateMutability": "view",
      "type": "function"
    },
    {
      "inputs": [
        {
          "internalType": "uint256",
          "name": "tokenId",
          "type": "uint256"
        }
      ],
      "name": "tokenURI",
      "outputs": [
        {
          "internalType": "string",
          "name": "",
          "type": "string"
        }
      ],
      "stateMutability": "view",
      "type": "function"
    },
    {
      "inputs": [
        {
          "internalType": "address",
          "name": "from",
          "type": "address"
        },
        {
          "internalType": "address",
          "name": "to",
          "type": "address"
        },
        {
          "internalType": "uint256",
          "name": "tokenId",
          "type": "uint256"
        }
      ],
      "name": "transferFrom",
      "outputs": [],
      "stateMutability": "nonpayable",
      "type": "function"
    },
    {
      "inputs": [],
      "name": "unpause",
      "outputs": [],
      "stateMutability": "nonpayable",
      "type": "function"
    },
    {
      "inputs": [
        {
          "internalType": "address",
          "name": "_voteFor",
          "type": "address"
        }
      ],
      "name": "vote",
      "outputs": [],
      "stateMutability": "nonpayable",
      "type": "function"
    },
    {
      "inputs": [
        {
          "internalType": "address",
          "name": "",
          "type": "address"
        }
      ],
      "name": "voterRegistry",
      "outputs": [
        {
          "internalType": "address",
          "name": "votedFor",
          "type": "address"
        },
        {
          "internalType": "bool",
          "name": "serving",
          "type": "bool"
        },
        {
          "internalType": "uint160",
          "name": "votesAccrued",
          "type": "uint160"
        },
        {
          "internalType": "bytes32",
          "name": "courtName",
          "type": "bytes32"
        },
        {
          "internalType": "uint32",
          "name": "voteDate",
          "type": "uint32"
        },
        {
          "internalType": "bytes19",
          "name": "__gap",
          "type": "bytes19"
        }
      ],
      "stateMutability": "view",
      "type": "function"
    }
  ],
  "bytecode": "0x6080604052600a600e5534801561001557600080fd5b506040518060400160405280601281526020017f44414f626920566f74696e6720546f6b656e00000000000000000000000000008152506040518060400160405280600481526020017f4442767400000000000000000000000000000000000000000000000000000000815250816000908161009191906105bf565b5080600190816100a191906105bf565b5050506000600760006101000a81548160ff0219169083151502179055506100d26000801b336101fe60201b60201c565b506101037f65d7a28e3265b37a6474929f336521b332c1681b933f6cb9f3376673440d862a336101fe60201b60201c565b506101347f9f2df0fed2c77648de5860a4cc508cd0818c85b8b8a1ab4ceeef8d981c8956a6336101fe60201b60201c565b506101657f3c11d16cbaffd01df69ce1c404f6340ee057498f5f00246190ea54220576a848336101fe60201b60201c565b506101967f8972b9d3322325818f1215107c5cad20b0d1bd8a19dd8c3113a4cda650cdfe63336101fe60201b60201c565b506101c77ff28dfd3b70fdc4c240fe198ff7392f4c72fb08f96bed76e3fb845a046d01c11b336101fe60201b60201c565b506101f87fac32d86f3c50adcaf7e67ed29e96faf1269f410f3c0de4924af909ac1f80e618336101fe60201b60201c565b50610691565b600061021083836102fc60201b60201c565b6102f15760016008600085815260200190815260200160002060000160008473ffffffffffffffffffffffffffffffffffffffff1673ffffffffffffffffffffffffffffffffffffffff16815260200190815260200160002060006101000a81548160ff02191690831515021790555061028e61036760201b60201c565b73ffffffffffffffffffffffffffffffffffffffff168273ffffffffffffffffffffffffffffffffffffffff16847f2f8788117e7eff1d82e926ec794901d17c78024a50270940304540a733656f0d60405160405180910390a4600190506102f6565b600090505b92915050565b60006008600084815260200190815260200160002060000160008373ffffffffffffffffffffffffffffffffffffffff1673ffffffffffffffffffffffffffffffffffffffff16815260200190815260200160002060009054906101000a900460ff16905092915050565b600033905090565b600081519050919050565b7f4e487b7100000000000000000000000000000000000000000000000000000000600052604160045260246000fd5b7f4e487b7100000000000000000000000000000000000000000000000000000000600052602260045260246000fd5b600060028204905060018216806103f057607f821691505b602082108103610403576104026103a9565b5b50919050565b60008190508160005260206000209050919050565b60006020601f8301049050919050565b600082821b905092915050565b60006008830261046b7fffffffffffffffffffffffffffffffffffffffffffffffffffffffffffffffff8261042e565b610475868361042e565b95508019841693508086168417925050509392505050565b6000819050919050565b6000819050919050565b60006104bc6104b76104b28461048d565b610497565b61048d565b9050919050565b6000819050919050565b6104d6836104a1565b6104ea6104e2826104c3565b84845461043b565b825550505050565b600090565b6104ff6104f2565b61050a8184846104cd565b505050565b5b8181101561052e576105236000826104f7565b600181019050610510565b5050565b601f8211156105735761054481610409565b61054d8461041e565b8101602085101561055c578190505b6105706105688561041e565b83018261050f565b50505b505050565b600082821c905092915050565b600061059660001984600802610578565b1980831691505092915050565b60006105af8383610585565b9150826002028217905092915050565b6105c88261036f565b67ffffffffffffffff8111156105e1576105e061037a565b5b6105eb82546103d8565b6105f6828285610532565b600060209050601f8311600181146106295760008415610617578287015190505b61062185826105a3565b865550610689565b601f19841661063786610409565b60005b8281101561065f5784890151825560018201915060208501945060208101905061063a565b8683101561067c5784890151610678601f891682610585565b8355505b6001600288020188555050505b505050505050565b61503c806106a06000396000f3fe608060405234801561001057600080fd5b50600436106102955760003560e01c80635c975abb11610167578063a217fddf116100ce578063d539139311610087578063d539139314610801578063d547741f1461081f578063da4e105d1461083b578063e63ab1e91461086b578063e64e4db914610889578063e985e9c51461089357610295565b8063a217fddf1461073f578063a22cb4651461075d578063a683f80114610779578063b7ce175214610797578063b88d4fde146107b5578063c87b56dd146107d157610295565b80636dd7d8ea116101205780636dd7d8ea1461066b57806370a08231146106875780638456cb59146106b757806391d14854146106c157806395d89b41146106f157806399900d111461070f57610295565b80635c975abb146105ab57806361294100146105c957806362f983a7146105e55780636352211e1461060357806369454bbb146106335780636a6278421461064f57610295565b8063248a9ca31161020b5780633f4ba83a116101c45780633f4ba83a146104f657806342842e0e146105005780634763d4e71461051c578063481e135b14610551578063557ea3dc1461056f57806355a373d61461058d57610295565b8063248a9ca314610410578063248d9a4b14610440578063282c51f3146104705780632f2ff15d1461048e578063340190ec146104aa57806336568abe146104da57610295565b80630b5f38251161025d5780630b5f3825146103505780630e677dfe1461035a5780631057fe291461037857806316934fc4146103a85780631e7a505f146103d857806323b872dd146103f457610295565b806301ffc9a71461029a57806302fe5305146102ca57806306fdde03146102e6578063081812fc14610304578063095ea7b314610334575b600080fd5b6102b460048036038101906102af9190613cb8565b6108c3565b6040516102c19190613d00565b60405180910390f35b6102e460048036038101906102df9190613e61565b6108d5565b005b6102ee61094a565b6040516102fb9190613f29565b60405180910390f35b61031e60048036038101906103199190613f81565b6109dc565b60405161032b9190613fef565b60405180910390f35b61034e60048036038101906103499190614036565b6109f8565b005b610358610a0e565b005b610362610e05565b60405161036f9190614085565b60405180910390f35b610392600480360381019061038d91906140a0565b610e0b565b60405161039f91906140ec565b60405180910390f35b6103c260048036038101906103bd91906140a0565b610e67565b6040516103cf9190614085565b60405180910390f35b6103f260048036038101906103ed919061413d565b610e7f565b005b61040e6004803603810190610409919061417d565b6114cf565b005b61042a600480360381019061042591906141d0565b6115d1565b604051610437919061420c565b60405180910390f35b61045a600480360381019061045591906140a0565b6115f1565b6040516104679190614236565b60405180910390f35b61047861165d565b604051610485919061420c565b60405180910390f35b6104a860048036038101906104a39190614251565b611681565b005b6104c460048036038101906104bf91906140a0565b6116a3565b6040516104d19190613d00565b60405180910390f35b6104f460048036038101906104ef9190614251565b6116fc565b005b6104fe611777565b005b61051a6004803603810190610515919061417d565b6117ac565b005b610536600480360381019061053191906140a0565b6117cc565b604051610548969594939291906142cc565b60405180910390f35b610559611872565b604051610566919061420c565b60405180910390f35b610577611896565b6040516105849190614085565b60405180910390f35b61059561189c565b6040516105a2919061434e565b60405180910390f35b6105b36118c2565b6040516105c09190613d00565b60405180910390f35b6105e360048036038101906105de9190613f81565b6118d9565b005b6105ed61190e565b6040516105fa9190613f29565b60405180910390f35b61061d60048036038101906106189190613f81565b61199c565b60405161062a9190613fef565b60405180910390f35b61064d60048036038101906106489190614395565b6119ae565b005b610669600480360381019061066491906140a0565b611a5e565b005b610685600480360381019061068091906140a0565b611ccf565b005b6106a1600480360381019061069c91906140a0565b61221e565b6040516106ae9190614085565b60405180910390f35b6106bf6122d8565b005b6106db60048036038101906106d69190614251565b61230d565b6040516106e89190613d00565b60405180910390f35b6106f9612378565b6040516107069190613f29565b60405180910390f35b610729600480360381019061072491906140a0565b61240a565b604051610736919061420c565b60405180910390f35b610747612456565b604051610754919061420c565b60405180910390f35b610777600480360381019061077291906143ee565b61245d565b005b610781612473565b60405161078e919061420c565b60405180910390f35b61079f612497565b6040516107ac919061420c565b60405180910390f35b6107cf60048036038101906107ca91906144cf565b6124bb565b005b6107eb60048036038101906107e69190613f81565b6124e0565b6040516107f89190613f29565b60405180910390f35b6108096124f2565b604051610816919061420c565b60405180910390f35b61083960048036038101906108349190614251565b612516565b005b610855600480360381019061085091906140a0565b612538565b6040516108629190613fef565b60405180910390f35b6108736125a4565b604051610880919061420c565b60405180910390f35b6108916125c8565b005b6108ad60048036038101906108a89190614552565b612700565b6040516108ba9190613d00565b60405180910390f35b60006108ce82612794565b9050919050565b7f8972b9d3322325818f1215107c5cad20b0d1bd8a19dd8c3113a4cda650cdfe636108ff8161280e565b81600a908161090e919061479e565b507feb1360331238b6f21499941a4e580b1210e087f39273f09b641f089bba7b0e728260405161093e9190613f29565b60405180910390a15050565b606060008054610959906145c1565b80601f0160208091040260200160405190810160405280929190818152602001828054610985906145c1565b80156109d25780601f106109a7576101008083540402835291602001916109d2565b820191906000526020600020905b8154815290600101906020018083116109b557829003601f168201915b5050505050905090565b60006109e782612822565b506109f1826128aa565b9050919050565b610a0a8282610a056128e7565b6128ef565b5050565b600960003373ffffffffffffffffffffffffffffffffffffffff1673ffffffffffffffffffffffffffffffffffffffff16815260200190815260200160002060000160149054906101000a900460ff16610a9d576040517f08c379a0000000000000000000000000000000000000000000000000000000008152600401610a94906148bc565b60405180910390fd5b6000600960003373ffffffffffffffffffffffffffffffffffffffff1673ffffffffffffffffffffffffffffffffffffffff16815260200190815260200160002060000160146101000a81548160ff02191690831515021790555060096000600960003373ffffffffffffffffffffffffffffffffffffffff1673ffffffffffffffffffffffffffffffffffffffff16815260200190815260200160002060000160009054906101000a900473ffffffffffffffffffffffffffffffffffffffff1673ffffffffffffffffffffffffffffffffffffffff1673ffffffffffffffffffffffffffffffffffffffff168152602001908152602001600020600101600081819054906101000a900473ffffffffffffffffffffffffffffffffffffffff1680929190610bcc9061490b565b91906101000a81548173ffffffffffffffffffffffffffffffffffffffff021916908373ffffffffffffffffffffffffffffffffffffffff160217905550506000600960003373ffffffffffffffffffffffffffffffffffffffff1673ffffffffffffffffffffffffffffffffffffffff16815260200190815260200160002060000160006101000a81548173ffffffffffffffffffffffffffffffffffffffff021916908373ffffffffffffffffffffffffffffffffffffffff1602179055506000600f60003373ffffffffffffffffffffffffffffffffffffffff1673ffffffffffffffffffffffffffffffffffffffff1681526020019081526020016000205490506000811115610dbf57600f60003373ffffffffffffffffffffffffffffffffffffffff1673ffffffffffffffffffffffffffffffffffffffff16815260200190815260200160002060009055600d60009054906101000a900473ffffffffffffffffffffffffffffffffffffffff1673ffffffffffffffffffffffffffffffffffffffff1663a9059cbb33836040518363ffffffff1660e01b8152600401610d7a929190614934565b6020604051808303816000875af1158015610d99573d6000803e3d6000fd5b505050506040513d601f19601f82011682018060405250810190610dbd9190614972565b505b3373ffffffffffffffffffffffffffffffffffffffff167fe2795580f31af61313dfda02eec54a3b17d06e395138a74e448cb4cb75d3d81860405160405180910390a250565b600e5481565b6000600960008373ffffffffffffffffffffffffffffffffffffffff1673ffffffffffffffffffffffffffffffffffffffff16815260200190815260200160002060030160009054906101000a900463ffffffff169050919050565b600f6020528060005260406000206000915090505481565b6000610e8a3361221e565b11610eca576040517f08c379a0000000000000000000000000000000000000000000000000000000008152600401610ec190614a11565b60405180910390fd5b600960003373ffffffffffffffffffffffffffffffffffffffff1673ffffffffffffffffffffffffffffffffffffffff16815260200190815260200160002060000160149054906101000a900460ff1615610f5a576040517f08c379a0000000000000000000000000000000000000000000000000000000008152600401610f5190614a7d565b60405180910390fd5b6000610f658361221e565b1180610f9d5750600073ffffffffffffffffffffffffffffffffffffffff168273ffffffffffffffffffffffffffffffffffffffff16145b610fdc576040517f08c379a0000000000000000000000000000000000000000000000000000000008152600401610fd390614ae9565b60405180910390fd5b600b54600d60009054906101000a900473ffffffffffffffffffffffffffffffffffffffff1673ffffffffffffffffffffffffffffffffffffffff166370a08231336040518263ffffffff1660e01b815260040161103a9190613fef565b602060405180830381865afa158015611057573d6000803e3d6000fd5b505050506040513d601f19601f8201168201806040525081019061107b9190614b1e565b10156110bc576040517f08c379a00000000000000000000000000000000000000000000000000000000081526004016110b390614b97565b60405180910390fd5b6000600f60003373ffffffffffffffffffffffffffffffffffffffff1673ffffffffffffffffffffffffffffffffffffffff16815260200190815260200160002054036111ef57600d60009054906101000a900473ffffffffffffffffffffffffffffffffffffffff1673ffffffffffffffffffffffffffffffffffffffff166323b872dd3330600e546040518463ffffffff1660e01b815260040161116493929190614bb7565b6020604051808303816000875af1158015611183573d6000803e3d6000fd5b505050506040513d601f19601f820116820180604052508101906111a79190614972565b50600e54600f60003373ffffffffffffffffffffffffffffffffffffffff1673ffffffffffffffffffffffffffffffffffffffff168152602001908152602001600020819055505b6040518060c001604052808373ffffffffffffffffffffffffffffffffffffffff168152602001600115158152602001600073ffffffffffffffffffffffffffffffffffffffff168152602001828152602001640100000000426112539190614c1d565b63ffffffff168152602001600060681b6cffffffffffffffffffffffffff1916815250600960003373ffffffffffffffffffffffffffffffffffffffff1673ffffffffffffffffffffffffffffffffffffffff16815260200190815260200160002060008201518160000160006101000a81548173ffffffffffffffffffffffffffffffffffffffff021916908373ffffffffffffffffffffffffffffffffffffffff16021790555060208201518160000160146101000a81548160ff02191690831515021790555060408201518160010160006101000a81548173ffffffffffffffffffffffffffffffffffffffff021916908373ffffffffffffffffffffffffffffffffffffffff1602179055506060820151816002015560808201518160030160006101000a81548163ffffffff021916908363ffffffff16021790555060a08201518160030160046101000a81548172ffffffffffffffffffffffffffffffffffffff021916908360681c0217905550905050600960008373ffffffffffffffffffffffffffffffffffffffff1673ffffffffffffffffffffffffffffffffffffffff168152602001908152602001600020600101600081819054906101000a900473ffffffffffffffffffffffffffffffffffffffff168092919061143c90614c4e565b91906101000a81548173ffffffffffffffffffffffffffffffffffffffff021916908373ffffffffffffffffffffffffffffffffffffffff160217905550503373ffffffffffffffffffffffffffffffffffffffff167fa629d669aa8e26d0998c7d6a40ad225ddea112e0c54474a08ef6c039bd30247682846040516114c3929190614c8a565b60405180910390a25050565b600073ffffffffffffffffffffffffffffffffffffffff168273ffffffffffffffffffffffffffffffffffffffff16036115415760006040517f64a0ae920000000000000000000000000000000000000000000000000000000081526004016115389190613fef565b60405180910390fd5b600061155583836115506128e7565b612901565b90508373ffffffffffffffffffffffffffffffffffffffff168173ffffffffffffffffffffffffffffffffffffffff16146115cb578382826040517f64283d7b0000000000000000000000000000000000000000000000000000000081526004016115c293929190614cb3565b60405180910390fd5b50505050565b600060086000838152602001908152602001600020600101549050919050565b6000600960008373ffffffffffffffffffffffffffffffffffffffff1673ffffffffffffffffffffffffffffffffffffffff16815260200190815260200160002060010160009054906101000a900473ffffffffffffffffffffffffffffffffffffffff169050919050565b7f3c11d16cbaffd01df69ce1c404f6340ee057498f5f00246190ea54220576a84881565b61168a826115d1565b6116938161280e565b61169d8383612916565b50505050565b6000600960008373ffffffffffffffffffffffffffffffffffffffff1673ffffffffffffffffffffffffffffffffffffffff16815260200190815260200160002060000160149054906101000a900460ff169050919050565b6117046128e7565b73ffffffffffffffffffffffffffffffffffffffff168173ffffffffffffffffffffffffffffffffffffffff1614611768576040517f6697b23200000000000000000000000000000000000000000000000000000000815260040160405180910390fd5b6117728282612a08565b505050565b7f65d7a28e3265b37a6474929f336521b332c1681b933f6cb9f3376673440d862a6117a18161280e565b6117a9612afb565b50565b6117c7838383604051806020016040528060008152506124bb565b505050565b60096020528060005260406000206000915090508060000160009054906101000a900473ffffffffffffffffffffffffffffffffffffffff16908060000160149054906101000a900460ff16908060010160009054906101000a900473ffffffffffffffffffffffffffffffffffffffff16908060020154908060030160009054906101000a900463ffffffff16908060030160049054906101000a900460681b905086565b7fac32d86f3c50adcaf7e67ed29e96faf1269f410f3c0de4924af909ac1f80e61881565b600b5481565b600c60009054906101000a900473ffffffffffffffffffffffffffffffffffffffff1681565b6000600760009054906101000a900460ff16905090565b7fac32d86f3c50adcaf7e67ed29e96faf1269f410f3c0de4924af909ac1f80e6186119038161280e565b81600b819055505050565b600a805461191b906145c1565b80601f0160208091040260200160405190810160405280929190818152602001828054611947906145c1565b80156119945780601f1061196957610100808354040283529160200191611994565b820191906000526020600020905b81548152906001019060200180831161197757829003601f168201915b505050505081565b60006119a782612822565b9050919050565b7ff28dfd3b70fdc4c240fe198ff7392f4c72fb08f96bed76e3fb845a046d01c11b6119d88161280e565b81600c60006101000a81548173ffffffffffffffffffffffffffffffffffffffff021916908373ffffffffffffffffffffffffffffffffffffffff16021790555081600d60006101000a81548173ffffffffffffffffffffffffffffffffffffffff021916908373ffffffffffffffffffffffffffffffffffffffff1602179055505050565b7f9f2df0fed2c77648de5860a4cc508cd0818c85b8b8a1ab4ceeef8d981c8956a6611a888161280e565b6000611a938361221e565b14611ad3576040517f08c379a0000000000000000000000000000000000000000000000000000000008152600401611aca90614d36565b60405180910390fd5b600d60009054906101000a900473ffffffffffffffffffffffffffffffffffffffff1673ffffffffffffffffffffffffffffffffffffffff166323b872dd8330600e546040518463ffffffff1660e01b8152600401611b3493929190614bb7565b6020604051808303816000875af1158015611b53573d6000803e3d6000fd5b505050506040513d601f19601f82011682018060405250810190611b779190614972565b50600e54600f60008473ffffffffffffffffffffffffffffffffffffffff1673ffffffffffffffffffffffffffffffffffffffff16815260200190815260200160002081905550611bde828373ffffffffffffffffffffffffffffffffffffffff16612b5e565b611c888273ffffffffffffffffffffffffffffffffffffffff16600a8054611c05906145c1565b80601f0160208091040260200160405190810160405280929190818152602001828054611c31906145c1565b8015611c7e5780601f10611c5357610100808354040283529160200191611c7e565b820191906000526020600020905b815481529060010190602001808311611c6157829003601f168201915b5050505050612b7c565b8173ffffffffffffffffffffffffffffffffffffffff167f0f53e2a811b6fd2d6cd965fd6c27b44fb924ca39f7a7f321115705c22366d62360405160405180910390a25050565b6000611cda3361221e565b11611d1a576040517f08c379a0000000000000000000000000000000000000000000000000000000008152600401611d1190614da2565b60405180910390fd5b600960003373ffffffffffffffffffffffffffffffffffffffff1673ffffffffffffffffffffffffffffffffffffffff16815260200190815260200160002060000160149054906101000a900460ff16611da9576040517f08c379a0000000000000000000000000000000000000000000000000000000008152600401611da090614e0e565b60405180910390fd5b6000611db48261221e565b1180611dec5750600073ffffffffffffffffffffffffffffffffffffffff168173ffffffffffffffffffffffffffffffffffffffff16145b611e2b576040517f08c379a0000000000000000000000000000000000000000000000000000000008152600401611e2290614ae9565b60405180910390fd5b600b54600d60009054906101000a900473ffffffffffffffffffffffffffffffffffffffff1673ffffffffffffffffffffffffffffffffffffffff166370a08231336040518263ffffffff1660e01b8152600401611e899190613fef565b602060405180830381865afa158015611ea6573d6000803e3d6000fd5b505050506040513d601f19601f82011682018060405250810190611eca9190614b1e565b1015611f0b576040517f08c379a0000000000000000000000000000000000000000000000000000000008152600401611f0290614b97565b60405180910390fd5b60096000600960003373ffffffffffffffffffffffffffffffffffffffff1673ffffffffffffffffffffffffffffffffffffffff16815260200190815260200160002060000160009054906101000a900473ffffffffffffffffffffffffffffffffffffffff1673ffffffffffffffffffffffffffffffffffffffff1673ffffffffffffffffffffffffffffffffffffffff168152602001908152602001600020600101600081819054906101000a900473ffffffffffffffffffffffffffffffffffffffff1680929190611fdf9061490b565b91906101000a81548173ffffffffffffffffffffffffffffffffffffffff021916908373ffffffffffffffffffffffffffffffffffffffff1602179055505080600960003373ffffffffffffffffffffffffffffffffffffffff1673ffffffffffffffffffffffffffffffffffffffff16815260200190815260200160002060000160006101000a81548173ffffffffffffffffffffffffffffffffffffffff021916908373ffffffffffffffffffffffffffffffffffffffff160217905550640100000000426120b09190614c1d565b600960003373ffffffffffffffffffffffffffffffffffffffff1673ffffffffffffffffffffffffffffffffffffffff16815260200190815260200160002060030160006101000a81548163ffffffff021916908363ffffffff160217905550600960008273ffffffffffffffffffffffffffffffffffffffff1673ffffffffffffffffffffffffffffffffffffffff168152602001908152602001600020600101600081819054906101000a900473ffffffffffffffffffffffffffffffffffffffff168092919061218290614c4e565b91906101000a81548173ffffffffffffffffffffffffffffffffffffffff021916908373ffffffffffffffffffffffffffffffffffffffff160217905550508073ffffffffffffffffffffffffffffffffffffffff163373ffffffffffffffffffffffffffffffffffffffff167fce0c7a2a940807f7dc2ce7a615c2532e915e6c0ac9a08bc4ed9d515a710a53e260405160405180910390a350565b60008073ffffffffffffffffffffffffffffffffffffffff168273ffffffffffffffffffffffffffffffffffffffff16036122915760006040517f89c62b640000000000000000000000000000000000000000000000000000000081526004016122889190613fef565b60405180910390fd5b600360008373ffffffffffffffffffffffffffffffffffffffff1673ffffffffffffffffffffffffffffffffffffffff168152602001908152602001600020549050919050565b7f65d7a28e3265b37a6474929f336521b332c1681b933f6cb9f3376673440d862a6123028161280e565b61230a612bd8565b50565b60006008600084815260200190815260200160002060000160008373ffffffffffffffffffffffffffffffffffffffff1673ffffffffffffffffffffffffffffffffffffffff16815260200190815260200160002060009054906101000a900460ff16905092915050565b606060018054612387906145c1565b80601f01602080910402602001604051908101604052809291908181526020018280546123b3906145c1565b80156124005780601f106123d557610100808354040283529160200191612400565b820191906000526020600020905b8154815290600101906020018083116123e357829003601f168201915b5050505050905090565b6000600960008373ffffffffffffffffffffffffffffffffffffffff1673ffffffffffffffffffffffffffffffffffffffff168152602001908152602001600020600201549050919050565b6000801b81565b61246f6124686128e7565b8383612c3b565b5050565b7ff28dfd3b70fdc4c240fe198ff7392f4c72fb08f96bed76e3fb845a046d01c11b81565b7f8972b9d3322325818f1215107c5cad20b0d1bd8a19dd8c3113a4cda650cdfe6381565b6124c68484846114cf565b6124da6124d16128e7565b85858585612daa565b50505050565b60606124eb82612f5b565b9050919050565b7f9f2df0fed2c77648de5860a4cc508cd0818c85b8b8a1ab4ceeef8d981c8956a681565b61251f826115d1565b6125288161280e565b6125328383612a08565b50505050565b6000600960008373ffffffffffffffffffffffffffffffffffffffff1673ffffffffffffffffffffffffffffffffffffffff16815260200190815260200160002060000160009054906101000a900473ffffffffffffffffffffffffffffffffffffffff169050919050565b7f65d7a28e3265b37a6474929f336521b332c1681b933f6cb9f3376673440d862a81565b3373ffffffffffffffffffffffffffffffffffffffff166125fe3373ffffffffffffffffffffffffffffffffffffffff1661199c565b73ffffffffffffffffffffffffffffffffffffffff1614612654576040517f08c379a000000000000000000000000000000000000000000000000000000000815260040161264b90614e7a565b60405180910390fd5b6126fe3373ffffffffffffffffffffffffffffffffffffffff16600a805461267b906145c1565b80601f01602080910402602001604051908101604052809291908181526020018280546126a7906145c1565b80156126f45780601f106126c9576101008083540402835291602001916126f4565b820191906000526020600020905b8154815290600101906020018083116126d757829003601f168201915b5050505050612b7c565b565b6000600560008473ffffffffffffffffffffffffffffffffffffffff1673ffffffffffffffffffffffffffffffffffffffff16815260200190815260200160002060008373ffffffffffffffffffffffffffffffffffffffff1673ffffffffffffffffffffffffffffffffffffffff16815260200190815260200160002060009054906101000a900460ff16905092915050565b60007f7965db0b000000000000000000000000000000000000000000000000000000007bffffffffffffffffffffffffffffffffffffffffffffffffffffffff1916827bffffffffffffffffffffffffffffffffffffffffffffffffffffffff1916148061280757506128068261306e565b5b9050919050565b61281f8161281a6128e7565b6130cf565b50565b60008061282e83613120565b9050600073ffffffffffffffffffffffffffffffffffffffff168173ffffffffffffffffffffffffffffffffffffffff16036128a157826040517f7e2732890000000000000000000000000000000000000000000000000000000081526004016128989190614085565b60405180910390fd5b80915050919050565b60006004600083815260200190815260200160002060009054906101000a900473ffffffffffffffffffffffffffffffffffffffff169050919050565b600033905090565b6128fc838383600161315d565b505050565b600061290e848484613322565b509392505050565b6000612922838361230d565b6129fd5760016008600085815260200190815260200160002060000160008473ffffffffffffffffffffffffffffffffffffffff1673ffffffffffffffffffffffffffffffffffffffff16815260200190815260200160002060006101000a81548160ff02191690831515021790555061299a6128e7565b73ffffffffffffffffffffffffffffffffffffffff168273ffffffffffffffffffffffffffffffffffffffff16847f2f8788117e7eff1d82e926ec794901d17c78024a50270940304540a733656f0d60405160405180910390a460019050612a02565b600090505b92915050565b6000612a14838361230d565b15612af05760006008600085815260200190815260200160002060000160008473ffffffffffffffffffffffffffffffffffffffff1673ffffffffffffffffffffffffffffffffffffffff16815260200190815260200160002060006101000a81548160ff021916908315150217905550612a8d6128e7565b73ffffffffffffffffffffffffffffffffffffffff168273ffffffffffffffffffffffffffffffffffffffff16847ff6391f5c32d9c69d2a47ea670b442974b53935d1edc7fd64eb21e047a839171b60405160405180910390a460019050612af5565b600090505b92915050565b612b0361353c565b6000600760006101000a81548160ff0219169083151502179055507f5db9ee0a495bf2e6ff9c91a7834c1ba4fdd244a5e8aa4e537bd38aeae4b073aa612b476128e7565b604051612b549190613fef565b60405180910390a1565b612b7882826040518060200160405280600081525061357c565b5050565b80600660008481526020019081526020016000209081612b9c919061479e565b507ff8e1a15aba9398e019f0b49df1a4fde98ee17ae345cb5f6b5e2c27f5033e8ce782604051612bcc9190614085565b60405180910390a15050565b612be06135a0565b6001600760006101000a81548160ff0219169083151502179055507f62e78cea01bee320cd4e420270b5ea74000d11b0c9f74754ebdbfc544b05a258612c246128e7565b604051612c319190613fef565b60405180910390a1565b600073ffffffffffffffffffffffffffffffffffffffff168273ffffffffffffffffffffffffffffffffffffffff1603612cac57816040517f5b08ba18000000000000000000000000000000000000000000000000000000008152600401612ca39190613fef565b60405180910390fd5b80600560008573ffffffffffffffffffffffffffffffffffffffff1673ffffffffffffffffffffffffffffffffffffffff16815260200190815260200160002060008473ffffffffffffffffffffffffffffffffffffffff1673ffffffffffffffffffffffffffffffffffffffff16815260200190815260200160002060006101000a81548160ff0219169083151502179055508173ffffffffffffffffffffffffffffffffffffffff168373ffffffffffffffffffffffffffffffffffffffff167f17307eab39ab6107e8899845ad3d59bd9653f200f220920489ca2b5937696c3183604051612d9d9190613d00565b60405180910390a3505050565b60008373ffffffffffffffffffffffffffffffffffffffff163b1115612f54578273ffffffffffffffffffffffffffffffffffffffff1663150b7a02868685856040518563ffffffff1660e01b8152600401612e099493929190614eef565b6020604051808303816000875af1925050508015612e4557506040513d601f19601f82011682018060405250810190612e429190614f50565b60015b612ec9573d8060008114612e75576040519150601f19603f3d011682016040523d82523d6000602084013e612e7a565b606091505b506000815103612ec157836040517f64a0ae92000000000000000000000000000000000000000000000000000000008152600401612eb89190613fef565b60405180910390fd5b805181602001fd5b63150b7a0260e01b7bffffffffffffffffffffffffffffffffffffffffffffffffffffffff1916817bffffffffffffffffffffffffffffffffffffffffffffffffffffffff191614612f5257836040517f64a0ae92000000000000000000000000000000000000000000000000000000008152600401612f499190613fef565b60405180910390fd5b505b5050505050565b6060612f6682612822565b506000600660008481526020019081526020016000208054612f87906145c1565b80601f0160208091040260200160405190810160405280929190818152602001828054612fb3906145c1565b80156130005780601f10612fd557610100808354040283529160200191613000565b820191906000526020600020905b815481529060010190602001808311612fe357829003601f168201915b5050505050905060006130116135e1565b90506000815103613026578192505050613069565b60008251111561305b578082604051602001613043929190614fb9565b60405160208183030381529060405292505050613069565b613064846135f8565b925050505b919050565b6000634906490660e01b7bffffffffffffffffffffffffffffffffffffffffffffffffffffffff1916827bffffffffffffffffffffffffffffffffffffffffffffffffffffffff191614806130c857506130c782613661565b5b9050919050565b6130d9828261230d565b61311c5780826040517fe2517d3f000000000000000000000000000000000000000000000000000000008152600401613113929190614fdd565b60405180910390fd5b5050565b60006002600083815260200190815260200160002060009054906101000a900473ffffffffffffffffffffffffffffffffffffffff169050919050565b80806131965750600073ffffffffffffffffffffffffffffffffffffffff168273ffffffffffffffffffffffffffffffffffffffff1614155b156132ca5760006131a684612822565b9050600073ffffffffffffffffffffffffffffffffffffffff168373ffffffffffffffffffffffffffffffffffffffff161415801561321157508273ffffffffffffffffffffffffffffffffffffffff168173ffffffffffffffffffffffffffffffffffffffff1614155b801561322457506132228184612700565b155b1561326657826040517fa9fbf51f00000000000000000000000000000000000000000000000000000000815260040161325d9190613fef565b60405180910390fd5b81156132c857838573ffffffffffffffffffffffffffffffffffffffff168273ffffffffffffffffffffffffffffffffffffffff167f8c5be1e5ebec7d5bd14f71427d1e84f3dd0314c0f7b2291e5b200ac8c7c3b92560405160405180910390a45b505b836004600085815260200190815260200160002060006101000a81548173ffffffffffffffffffffffffffffffffffffffff021916908373ffffffffffffffffffffffffffffffffffffffff16021790555050505050565b60008061332e84613120565b9050600073ffffffffffffffffffffffffffffffffffffffff168373ffffffffffffffffffffffffffffffffffffffff16146133705761336f818486613743565b5b600073ffffffffffffffffffffffffffffffffffffffff168173ffffffffffffffffffffffffffffffffffffffff1614613401576133b260008560008061315d565b6001600360008373ffffffffffffffffffffffffffffffffffffffff1673ffffffffffffffffffffffffffffffffffffffff168152602001908152602001600020600082825403925050819055505b600073ffffffffffffffffffffffffffffffffffffffff168573ffffffffffffffffffffffffffffffffffffffff1614613484576001600360008773ffffffffffffffffffffffffffffffffffffffff1673ffffffffffffffffffffffffffffffffffffffff168152602001908152602001600020600082825401925050819055505b846002600086815260200190815260200160002060006101000a81548173ffffffffffffffffffffffffffffffffffffffff021916908373ffffffffffffffffffffffffffffffffffffffff160217905550838573ffffffffffffffffffffffffffffffffffffffff168273ffffffffffffffffffffffffffffffffffffffff167fddf252ad1be2c89b69c2b068fc378daa952ba7f163c4a11628f55a4df523b3ef60405160405180910390a4809150509392505050565b6135446118c2565b61357a576040517f8dfc202b00000000000000000000000000000000000000000000000000000000815260040160405180910390fd5b565b6135868383613807565b61359b6135916128e7565b6000858585612daa565b505050565b6135a86118c2565b156135df576040517fd93c066500000000000000000000000000000000000000000000000000000000815260040160405180910390fd5b565b606060405180602001604052806000815250905090565b606061360382612822565b50600061360e6135e1565b9050600081511161362e5760405180602001604052806000815250613659565b8061363884613900565b604051602001613649929190614fb9565b6040516020818303038152906040525b915050919050565b60007f80ac58cd000000000000000000000000000000000000000000000000000000007bffffffffffffffffffffffffffffffffffffffffffffffffffffffff1916827bffffffffffffffffffffffffffffffffffffffffffffffffffffffff1916148061372c57507f5b5e139f000000000000000000000000000000000000000000000000000000007bffffffffffffffffffffffffffffffffffffffffffffffffffffffff1916827bffffffffffffffffffffffffffffffffffffffffffffffffffffffff1916145b8061373c575061373b826139ce565b5b9050919050565b61374e838383613a38565b61380257600073ffffffffffffffffffffffffffffffffffffffff168373ffffffffffffffffffffffffffffffffffffffff16036137c357806040517f7e2732890000000000000000000000000000000000000000000000000000000081526004016137ba9190614085565b60405180910390fd5b81816040517f177e802f0000000000000000000000000000000000000000000000000000000081526004016137f9929190614934565b60405180910390fd5b505050565b600073ffffffffffffffffffffffffffffffffffffffff168273ffffffffffffffffffffffffffffffffffffffff16036138795760006040517f64a0ae920000000000000000000000000000000000000000000000000000000081526004016138709190613fef565b60405180910390fd5b600061388783836000612901565b9050600073ffffffffffffffffffffffffffffffffffffffff168173ffffffffffffffffffffffffffffffffffffffff16146138fb5760006040517f73c6ac6e0000000000000000000000000000000000000000000000000000000081526004016138f29190613fef565b60405180910390fd5b505050565b60606000600161390f84613af9565b01905060008167ffffffffffffffff81111561392e5761392d613d36565b5b6040519080825280601f01601f1916602001820160405280156139605781602001600182028036833780820191505090505b509050600082602001820190505b6001156139c3578080600190039150507f3031323334353637383961626364656600000000000000000000000000000000600a86061a8153600a85816139b7576139b6614bee565b5b0494506000850361396e575b819350505050919050565b60007f01ffc9a7000000000000000000000000000000000000000000000000000000007bffffffffffffffffffffffffffffffffffffffffffffffffffffffff1916827bffffffffffffffffffffffffffffffffffffffffffffffffffffffff1916149050919050565b60008073ffffffffffffffffffffffffffffffffffffffff168373ffffffffffffffffffffffffffffffffffffffff1614158015613af057508273ffffffffffffffffffffffffffffffffffffffff168473ffffffffffffffffffffffffffffffffffffffff161480613ab15750613ab08484612700565b5b80613aef57508273ffffffffffffffffffffffffffffffffffffffff16613ad7836128aa565b73ffffffffffffffffffffffffffffffffffffffff16145b5b90509392505050565b600080600090507a184f03e93ff9f4daa797ed6e38ed64bf6a1f0100000000000000008310613b57577a184f03e93ff9f4daa797ed6e38ed64bf6a1f0100000000000000008381613b4d57613b4c614bee565b5b0492506040810190505b6d04ee2d6d415b85acef81000000008310613b94576d04ee2d6d415b85acef81000000008381613b8a57613b89614bee565b5b0492506020810190505b662386f26fc100008310613bc357662386f26fc100008381613bb957613bb8614bee565b5b0492506010810190505b6305f5e1008310613bec576305f5e1008381613be257613be1614bee565b5b0492506008810190505b6127108310613c11576127108381613c0757613c06614bee565b5b0492506004810190505b60648310613c345760648381613c2a57613c29614bee565b5b0492506002810190505b600a8310613c43576001810190505b80915050919050565b6000604051905090565b600080fd5b600080fd5b60007fffffffff0000000000000000000000000000000000000000000000000000000082169050919050565b613c9581613c60565b8114613ca057600080fd5b50565b600081359050613cb281613c8c565b92915050565b600060208284031215613cce57613ccd613c56565b5b6000613cdc84828501613ca3565b91505092915050565b60008115159050919050565b613cfa81613ce5565b82525050565b6000602082019050613d156000830184613cf1565b92915050565b600080fd5b600080fd5b6000601f19601f8301169050919050565b7f4e487b7100000000000000000000000000000000000000000000000000000000600052604160045260246000fd5b613d6e82613d25565b810181811067ffffffffffffffff82111715613d8d57613d8c613d36565b5b80604052505050565b6000613da0613c4c565b9050613dac8282613d65565b919050565b600067ffffffffffffffff821115613dcc57613dcb613d36565b5b613dd582613d25565b9050602081019050919050565b82818337600083830152505050565b6000613e04613dff84613db1565b613d96565b905082815260208101848484011115613e2057613e1f613d20565b5b613e2b848285613de2565b509392505050565b600082601f830112613e4857613e47613d1b565b5b8135613e58848260208601613df1565b91505092915050565b600060208284031215613e7757613e76613c56565b5b600082013567ffffffffffffffff811115613e9557613e94613c5b565b5b613ea184828501613e33565b91505092915050565b600081519050919050565b600082825260208201905092915050565b60005b83811015613ee4578082015181840152602081019050613ec9565b60008484015250505050565b6000613efb82613eaa565b613f058185613eb5565b9350613f15818560208601613ec6565b613f1e81613d25565b840191505092915050565b60006020820190508181036000830152613f438184613ef0565b905092915050565b6000819050919050565b613f5e81613f4b565b8114613f6957600080fd5b50565b600081359050613f7b81613f55565b92915050565b600060208284031215613f9757613f96613c56565b5b6000613fa584828501613f6c565b91505092915050565b600073ffffffffffffffffffffffffffffffffffffffff82169050919050565b6000613fd982613fae565b9050919050565b613fe981613fce565b82525050565b60006020820190506140046000830184613fe0565b92915050565b61401381613fce565b811461401e57600080fd5b50565b6000813590506140308161400a565b92915050565b6000806040838503121561404d5761404c613c56565b5b600061405b85828601614021565b925050602061406c85828601613f6c565b9150509250929050565b61407f81613f4b565b82525050565b600060208201905061409a6000830184614076565b92915050565b6000602082840312156140b6576140b5613c56565b5b60006140c484828501614021565b91505092915050565b600063ffffffff82169050919050565b6140e6816140cd565b82525050565b600060208201905061410160008301846140dd565b92915050565b6000819050919050565b61411a81614107565b811461412557600080fd5b50565b60008135905061413781614111565b92915050565b6000806040838503121561415457614153613c56565b5b600061416285828601614021565b925050602061417385828601614128565b9150509250929050565b60008060006060848603121561419657614195613c56565b5b60006141a486828701614021565b93505060206141b586828701614021565b92505060406141c686828701613f6c565b9150509250925092565b6000602082840312156141e6576141e5613c56565b5b60006141f484828501614128565b91505092915050565b61420681614107565b82525050565b600060208201905061422160008301846141fd565b92915050565b61423081613fae565b82525050565b600060208201905061424b6000830184614227565b92915050565b6000806040838503121561426857614267613c56565b5b600061427685828601614128565b925050602061428785828601614021565b9150509250929050565b60007fffffffffffffffffffffffffffffffffffffff0000000000000000000000000082169050919050565b6142c681614291565b82525050565b600060c0820190506142e16000830189613fe0565b6142ee6020830188613cf1565b6142fb6040830187614227565b61430860608301866141fd565b61431560808301856140dd565b61432260a08301846142bd565b979650505050505050565b600061433882613fae565b9050919050565b6143488161432d565b82525050565b6000602082019050614363600083018461433f565b92915050565b6143728161432d565b811461437d57600080fd5b50565b60008135905061438f81614369565b92915050565b6000602082840312156143ab576143aa613c56565b5b60006143b984828501614380565b91505092915050565b6143cb81613ce5565b81146143d657600080fd5b50565b6000813590506143e8816143c2565b92915050565b6000806040838503121561440557614404613c56565b5b600061441385828601614021565b9250506020614424858286016143d9565b9150509250929050565b600067ffffffffffffffff82111561444957614448613d36565b5b61445282613d25565b9050602081019050919050565b600061447261446d8461442e565b613d96565b90508281526020810184848401111561448e5761448d613d20565b5b614499848285613de2565b509392505050565b600082601f8301126144b6576144b5613d1b565b5b81356144c684826020860161445f565b91505092915050565b600080600080608085870312156144e9576144e8613c56565b5b60006144f787828801614021565b945050602061450887828801614021565b935050604061451987828801613f6c565b925050606085013567ffffffffffffffff81111561453a57614539613c5b565b5b614546878288016144a1565b91505092959194509250565b6000806040838503121561456957614568613c56565b5b600061457785828601614021565b925050602061458885828601614021565b9150509250929050565b7f4e487b7100000000000000000000000000000000000000000000000000000000600052602260045260246000fd5b600060028204905060018216806145d957607f821691505b6020821081036145ec576145eb614592565b5b50919050565b60008190508160005260206000209050919050565b60006020601f8301049050919050565b600082821b905092915050565b6000600883026146547fffffffffffffffffffffffffffffffffffffffffffffffffffffffffffffffff82614617565b61465e8683614617565b95508019841693508086168417925050509392505050565b6000819050919050565b600061469b61469661469184613f4b565b614676565b613f4b565b9050919050565b6000819050919050565b6146b583614680565b6146c96146c1826146a2565b848454614624565b825550505050565b600090565b6146de6146d1565b6146e98184846146ac565b505050565b5b8181101561470d576147026000826146d6565b6001810190506146ef565b5050565b601f82111561475257614723816145f2565b61472c84614607565b8101602085101561473b578190505b61474f61474785614607565b8301826146ee565b50505b505050565b600082821c905092915050565b600061477560001984600802614757565b1980831691505092915050565b600061478e8383614764565b9150826002028217905092915050565b6147a782613eaa565b67ffffffffffffffff8111156147c0576147bf613d36565b5b6147ca82546145c1565b6147d5828285614711565b600060209050601f83116001811461480857600084156147f6578287015190505b6148008582614782565b865550614868565b601f198416614816866145f2565b60005b8281101561483e57848901518255600182019150602085019450602081019050614819565b8683101561485b5784890151614857601f891682614764565b8355505b6001600288020188555050505b505050505050565b7f416c726561647920696e61637469766500000000000000000000000000000000600082015250565b60006148a6601083613eb5565b91506148b182614870565b602082019050919050565b600060208201905081810360008301526148d581614899565b9050919050565b7f4e487b7100000000000000000000000000000000000000000000000000000000600052601160045260246000fd5b600061491682613fae565b915060008203614929576149286148dc565b5b600182039050919050565b60006040820190506149496000830185613fe0565b6149566020830184614076565b9392505050565b60008151905061496c816143c2565b92915050565b60006020828403121561498857614987613c56565b5b60006149968482850161495d565b91505092915050565b7f596f75206d75737420686f6c64206120746f6b656e20746f207265676973746560008201527f7200000000000000000000000000000000000000000000000000000000000000602082015250565b60006149fb602183613eb5565b9150614a068261499f565b604082019050919050565b60006020820190508181036000830152614a2a816149ee565b9050919050565b7f416c726561647920726567697374657265640000000000000000000000000000600082015250565b6000614a67601283613eb5565b9150614a7282614a31565b602082019050919050565b60006020820190508181036000830152614a9681614a5a565b9050919050565b7f496e76616c69642063616e646964617465000000000000000000000000000000600082015250565b6000614ad3601183613eb5565b9150614ade82614a9d565b602082019050919050565b60006020820190508181036000830152614b0281614ac6565b9050919050565b600081519050614b1881613f55565b92915050565b600060208284031215614b3457614b33613c56565b5b6000614b4284828501614b09565b91505092915050565b7f496e73756666696369656e742062616c616e6365000000000000000000000000600082015250565b6000614b81601483613eb5565b9150614b8c82614b4b565b602082019050919050565b60006020820190508181036000830152614bb081614b74565b9050919050565b6000606082019050614bcc6000830186613fe0565b614bd96020830185613fe0565b614be66040830184614076565b949350505050565b7f4e487b7100000000000000000000000000000000000000000000000000000000600052601260045260246000fd5b6000614c2882613f4b565b9150614c3383613f4b565b925082614c4357614c42614bee565b5b828206905092915050565b6000614c5982613fae565b915073ffffffffffffffffffffffffffffffffffffffff8203614c7f57614c7e6148dc565b5b600182019050919050565b6000604082019050614c9f60008301856141fd565b614cac6020830184613fe0565b9392505050565b6000606082019050614cc86000830186613fe0565b614cd56020830185614076565b614ce26040830184613fe0565b949350505050565b7f4163636f756e7420616c726561647920686173206120746f6b656e0000000000600082015250565b6000614d20601b83613eb5565b9150614d2b82614cea565b602082019050919050565b60006020820190508181036000830152614d4f81614d13565b9050919050565b7f596f7520646f6e27742068617665206120746f6b656e00000000000000000000600082015250565b6000614d8c601683613eb5565b9150614d9782614d56565b602082019050919050565b60006020820190508181036000830152614dbb81614d7f565b9050919050565b7f4e6f742072656769737465726564000000000000000000000000000000000000600082015250565b6000614df8600e83613eb5565b9150614e0382614dc2565b602082019050919050565b60006020820190508181036000830152614e2781614deb565b9050919050565b7f4f6e6c7920746f6b656e206f776e65722063616e207570646174652055524900600082015250565b6000614e64601f83613eb5565b9150614e6f82614e2e565b602082019050919050565b60006020820190508181036000830152614e9381614e57565b9050919050565b600081519050919050565b600082825260208201905092915050565b6000614ec182614e9a565b614ecb8185614ea5565b9350614edb818560208601613ec6565b614ee481613d25565b840191505092915050565b6000608082019050614f046000830187613fe0565b614f116020830186613fe0565b614f1e6040830185614076565b8181036060830152614f308184614eb6565b905095945050505050565b600081519050614f4a81613c8c565b92915050565b600060208284031215614f6657614f65613c56565b5b6000614f7484828501614f3b565b91505092915050565b600081905092915050565b6000614f9382613eaa565b614f9d8185614f7d565b9350614fad818560208601613ec6565b80840191505092915050565b6000614fc58285614f88565b9150614fd18284614f88565b91508190509392505050565b6000604082019050614ff26000830185613fe0565b614fff60208301846141fd565b939250505056fea2646970667358221220fa5c1dec75d185b38d8c1b9ff014fb36bdd805e17fbfb152874c5327d5d8b47064736f6c634300081c0033",
  "linkReferences": {},
  "deployedLinkReferences": {}
}